{
  "_format": "hh-sol-artifact-1",
  "contractName": "SmartDisperse",
  "sourceName": "contracts/SmartDisperse.sol",
  "abi": [
    {
      "inputs": [
        {
          "internalType": "address",
          "name": "_wormholeRelayer",
          "type": "address"
        },
        {
          "internalType": "address",
          "name": "_tokenBridge",
          "type": "address"
        },
        {
          "internalType": "address",
          "name": "_wormhole",
          "type": "address"
        }
      ],
      "stateMutability": "nonpayable",
      "type": "constructor"
    },
    {
      "inputs": [
        {
          "internalType": "bytes32",
          "name": "",
          "type": "bytes32"
        }
      ],
      "name": "NotAnEvmAddress",
      "type": "error"
    },
    {
      "inputs": [
        {
          "internalType": "address payable[]",
          "name": "recipients",
          "type": "address[]"
        },
        {
          "internalType": "uint256[]",
          "name": "values",
          "type": "uint256[]"
        }
      ],
      "name": "disperseEther",
      "outputs": [],
      "stateMutability": "payable",
      "type": "function"
    },
    {
      "inputs": [
        {
          "internalType": "contract IERC20",
          "name": "token",
          "type": "address"
        },
        {
          "internalType": "address[]",
          "name": "recipients",
          "type": "address[]"
        },
        {
          "internalType": "uint256[]",
          "name": "values",
          "type": "uint256[]"
        }
      ],
      "name": "disperseToken",
      "outputs": [],
      "stateMutability": "nonpayable",
      "type": "function"
    },
    {
      "inputs": [
        {
          "internalType": "contract IERC20",
          "name": "token",
          "type": "address"
        },
        {
          "internalType": "address[]",
          "name": "recipients",
          "type": "address[]"
        },
        {
          "internalType": "uint256[]",
          "name": "values",
          "type": "uint256[]"
        }
      ],
      "name": "disperseTokenSimple",
      "outputs": [],
      "stateMutability": "nonpayable",
      "type": "function"
    },
    {
      "inputs": [
        {
          "internalType": "uint16",
          "name": "targetChain",
          "type": "uint16"
        }
      ],
      "name": "quoteCrossChainDeposit",
      "outputs": [
        {
          "internalType": "uint256",
          "name": "cost",
          "type": "uint256"
        }
      ],
      "stateMutability": "view",
      "type": "function"
    },
    {
      "inputs": [
        {
          "internalType": "bytes",
          "name": "payload",
          "type": "bytes"
        },
        {
          "internalType": "bytes[]",
          "name": "additionalVaas",
          "type": "bytes[]"
        },
        {
          "internalType": "bytes32",
          "name": "sourceAddress",
          "type": "bytes32"
        },
        {
          "internalType": "uint16",
          "name": "sourceChain",
          "type": "uint16"
        },
        {
          "internalType": "bytes32",
          "name": "deliveryHash",
          "type": "bytes32"
        }
      ],
      "name": "receiveWormholeMessages",
      "outputs": [],
      "stateMutability": "payable",
      "type": "function"
    },
    {
      "inputs": [
        {
          "components": [
            {
              "internalType": "address[]",
              "name": "recipients",
              "type": "address[]"
            },
            {
              "internalType": "uint256[]",
              "name": "amounts",
              "type": "uint256[]"
            },
            {
              "internalType": "uint16",
              "name": "destChain",
              "type": "uint16"
            },
            {
              "internalType": "address",
              "name": "detContractAddress",
              "type": "address"
            },
            {
              "internalType": "address",
              "name": "token",
              "type": "address"
            },
            {
              "internalType": "uint256",
              "name": "totalAmount",
              "type": "uint256"
            }
          ],
          "internalType": "struct SmartDisperse.PaymentData[]",
          "name": "_paymentData",
          "type": "tuple[]"
        }
      ],
      "name": "sendCrossChainDeposit",
      "outputs": [],
      "stateMutability": "payable",
      "type": "function"
    },
    {
      "inputs": [
        {
          "internalType": "uint16",
          "name": "sourceChain",
          "type": "uint16"
        },
        {
          "internalType": "bytes32",
          "name": "sourceAddress",
          "type": "bytes32"
        }
      ],
      "name": "setRegisteredSender",
      "outputs": [],
      "stateMutability": "nonpayable",
      "type": "function"
    },
    {
      "inputs": [],
      "name": "tokenBridge",
      "outputs": [
        {
          "internalType": "contract ITokenBridge",
          "name": "",
          "type": "address"
        }
      ],
      "stateMutability": "view",
      "type": "function"
    },
    {
      "inputs": [],
      "name": "wormhole",
      "outputs": [
        {
          "internalType": "contract IWormhole",
          "name": "",
          "type": "address"
        }
      ],
      "stateMutability": "view",
      "type": "function"
    },
    {
      "inputs": [],
      "name": "wormholeRelayer",
      "outputs": [
        {
          "internalType": "contract IWormholeRelayer",
          "name": "",
          "type": "address"
        }
      ],
      "stateMutability": "view",
      "type": "function"
    }
  ],
  "bytecode": "0x60e06040523480156200001157600080fd5b5060405162003bac38038062003bac833981810160405281019062000037919062000190565b82828282818173ffffffffffffffffffffffffffffffffffffffff1660808173ffffffffffffffffffffffffffffffffffffffff16815250508073ffffffffffffffffffffffffffffffffffffffff1660a08173ffffffffffffffffffffffffffffffffffffffff1681525050336000806101000a81548173ffffffffffffffffffffffffffffffffffffffff021916908373ffffffffffffffffffffffffffffffffffffffff16021790555050508173ffffffffffffffffffffffffffffffffffffffff1660c08173ffffffffffffffffffffffffffffffffffffffff1681525050505050505050620001ec565b600080fd5b600073ffffffffffffffffffffffffffffffffffffffff82169050919050565b600062000158826200012b565b9050919050565b6200016a816200014b565b81146200017657600080fd5b50565b6000815190506200018a816200015f565b92915050565b600080600060608486031215620001ac57620001ab62000126565b5b6000620001bc8682870162000179565b9350506020620001cf8682870162000179565b9250506040620001e28682870162000179565b9150509250925092565b60805160a05160c05161391962000293600039600081816107490152818161082e015281816109c601528181610b9c015281816111de015281816115ed0152818161167201526118580152600081816104a30152818161068e015281816108e901528181610b7801528181611141015281816116ae01526117bd0152600081816103fd01528181610d7301528181610fc601528181611066015261139b01526139196000f3fe6080604052600436106100915760003560e01c8063c6328a4611610059578063c6328a461461015f578063c73a2d601461018a578063da25b725146101b3578063dd12d68b146101de578063e63d38ed1461020757610091565b806303009024146100965780632b524c97146100b257806351ba162c146100ef578063529dca321461011857806384acd1bb14610134575b600080fd5b6100b060048036038101906100ab9190611dda565b610223565b005b3480156100be57600080fd5b506100d960048036038101906100d49190611e23565b6103f8565b6040516100e69190611e5f565b60405180910390f35b3480156100fb57600080fd5b5061011660048036038101906101119190611eb8565b610543565b005b610132600480360381019061012d919061210f565b610625565b005b34801561014057600080fd5b50610149610b76565b6040516101569190612221565b60405180910390f35b34801561016b57600080fd5b50610174610b9a565b604051610181919061225d565b60405180910390f35b34801561019657600080fd5b506101b160048036038101906101ac9190611eb8565b610bbe565b005b3480156101bf57600080fd5b506101c8610d71565b6040516101d59190612299565b60405180910390f35b3480156101ea57600080fd5b50610205600480360381019061020091906122b4565b610d95565b005b610221600480360381019061021c91906123f5565b610e47565b005b60008151905060005b818110156103f3578281815181106102475761024661246d565b5b60200260200101516080015173ffffffffffffffffffffffffffffffffffffffff166323b872dd33308685815181106102835761028261246d565b5b602002602001015160a001516040518463ffffffff1660e01b81526004016102ad939291906124ab565b6020604051808303816000875af11580156102cc573d6000803e3d6000fd5b505050506040513d601f19601f820116820180604052508101906102f0919061251a565b5060008382815181106103065761030561246d565b5b6020026020010151600001518483815181106103255761032461246d565b5b6020026020010151602001516040516020016103429291906126c3565b60405160208183030381529060405290506103de8483815181106103695761036861246d565b5b6020026020010151604001518584815181106103885761038761246d565b5b6020026020010151606001518360006203d0908988815181106103ae576103ad61246d565b5b6020026020010151608001518a89815181106103cd576103cc61246d565b5b602002602001015160a00151610f3d565b505080806103eb90612729565b91505061022c565b505050565b6000807f000000000000000000000000000000000000000000000000000000000000000073ffffffffffffffffffffffffffffffffffffffff1663c23ee3c38460006203d0906040518463ffffffff1660e01b815260040161045c939291906127bb565b6040805180830381865afa158015610478573d6000803e3d6000fd5b505050506040513d601f19601f8201168201806040525081019061049c9190612807565b50809150507f000000000000000000000000000000000000000000000000000000000000000073ffffffffffffffffffffffffffffffffffffffff16631a90a2196040518163ffffffff1660e01b8152600401602060405180830381865afa15801561050c573d6000803e3d6000fd5b505050506040513d601f19601f820116820180604052508101906105309190612847565b8161053b9190612874565b915050919050565b60005b825181101561061f578373ffffffffffffffffffffffffffffffffffffffff166323b872dd3385848151811061057f5761057e61246d565b5b602002602001015185858151811061059a5761059961246d565b5b60200260200101516040518463ffffffff1660e01b81526004016105c0939291906124ab565b6020604051808303816000875af11580156105df573d6000803e3d6000fd5b505050506040513d601f19601f82011682018060405250810190610603919061251a565b61060c57600080fd5b808061061790612729565b915050610546565b50505050565b6000845167ffffffffffffffff81111561064257610641611943565b5b60405190808252806020026020018201604052801561067b57816020015b61066861189b565b8152602001906001900390816106605790505b50905060005b8551811015610b605760007f000000000000000000000000000000000000000000000000000000000000000073ffffffffffffffffffffffffffffffffffffffff1663a9e118938884815181106106db576106da61246d565b5b60200260200101516040518263ffffffff1660e01b81526004016106ff9190612927565b600060405180830381865afa15801561071c573d6000803e3d6000fd5b505050506040513d6000823e3d601f19601f820116820180604052508101906107459190612d17565b90507f000000000000000000000000000000000000000000000000000000000000000073ffffffffffffffffffffffffffffffffffffffff1663ad66a5f182606001516040518263ffffffff1660e01b81526004016107a49190612d60565b602060405180830381865afa1580156107c1573d6000803e3d6000fd5b505050506040513d601f19601f820116820180604052508101906107e59190612d7b565b81608001511461082a576040517f08c379a000000000000000000000000000000000000000000000000000000000815260040161082190612e05565b60405180910390fd5b60007f000000000000000000000000000000000000000000000000000000000000000073ffffffffffffffffffffffffffffffffffffffff1663ea63738d8360e001516040518263ffffffff1660e01b81526004016108899190612927565b600060405180830381865afa1580156108a6573d6000803e3d6000fd5b505050506040513d6000823e3d601f19601f820116820180604052508101906108cf9190612f0b565b90506108da3061111a565b816080015114801561098557507f000000000000000000000000000000000000000000000000000000000000000073ffffffffffffffffffffffffffffffffffffffff16639a8a05926040518163ffffffff1660e01b8152600401602060405180830381865afa158015610952573d6000803e3d6000fd5b505050506040513d601f19601f820116820180604052508101906109769190612f54565b61ffff168160a0015161ffff16145b6109c4576040517f08c379a00000000000000000000000000000000000000000000000000000000081526004016109bb90612ff3565b60405180910390fd5b7f000000000000000000000000000000000000000000000000000000000000000073ffffffffffffffffffffffffffffffffffffffff1663c3f511c1898581518110610a1357610a1261246d565b5b60200260200101516040518263ffffffff1660e01b8152600401610a379190612927565b6000604051808303816000875af1158015610a56573d6000803e3d6000fd5b505050506040513d6000823e3d601f19601f82011682018060405250810190610a7f9190613013565b506000610a948260600151836040015161113d565b90506000610aa18261128f565b905060008360200151905060088260ff161115610adf57600882610ac5919061305c565b600a610ad191906131c4565b81610adc919061320f565b90505b6040518060a0016040528085604001518152602001856060015161ffff1681526020018473ffffffffffffffffffffffffffffffffffffffff1681526020018281526020018560200151815250878781518110610b3f57610b3e61246d565b5b6020026020010181905250505050505080610b5990612729565b9050610681565b50610b6e8682868686611399565b505050505050565b7f000000000000000000000000000000000000000000000000000000000000000081565b7f000000000000000000000000000000000000000000000000000000000000000081565b6000805b8351811015610c0657828181518110610bde57610bdd61246d565b5b602002602001015182610bf19190612874565b91508080610bfe90612729565b915050610bc2565b508373ffffffffffffffffffffffffffffffffffffffff166323b872dd3330846040518463ffffffff1660e01b8152600401610c44939291906124ab565b6020604051808303816000875af1158015610c63573d6000803e3d6000fd5b505050506040513d601f19601f82011682018060405250810190610c87919061251a565b610c9057600080fd5b60005b8351811015610d6a578473ffffffffffffffffffffffffffffffffffffffff1663a9059cbb858381518110610ccb57610cca61246d565b5b6020026020010151858481518110610ce657610ce561246d565b5b60200260200101516040518363ffffffff1660e01b8152600401610d0b929190613251565b6020604051808303816000875af1158015610d2a573d6000803e3d6000fd5b505050506040513d601f19601f82011682018060405250810190610d4e919061251a565b610d5757600080fd5b8080610d6290612729565b915050610c93565b5050505050565b7f000000000000000000000000000000000000000000000000000000000000000081565b60008054906101000a900473ffffffffffffffffffffffffffffffffffffffff1673ffffffffffffffffffffffffffffffffffffffff163373ffffffffffffffffffffffffffffffffffffffff1614610e23576040517f08c379a0000000000000000000000000000000000000000000000000000000008152600401610e1a906132ec565b60405180910390fd5b80600160008461ffff1661ffff168152602001908152602001600020819055505050565b60005b8251811015610ee157828181518110610e6657610e6561246d565b5b602002602001015173ffffffffffffffffffffffffffffffffffffffff166108fc838381518110610e9a57610e9961246d565b5b60200260200101519081150290604051600060405180830381858888f19350505050158015610ecd573d6000803e3d6000fd5b508080610ed990612729565b915050610e4a565b5060004790506000811115610f38573373ffffffffffffffffffffffffffffffffffffffff166108fc829081150290604051600060405180830381858888f19350505050158015610f36573d6000803e3d6000fd5b505b505050565b600080600167ffffffffffffffff811115610f5b57610f5a611943565b5b604051908082528060200260200182016040528015610f9457816020015b610f816118e7565b815260200190600190039081610f795790505b509050610fa384848b8b611541565b81600081518110610fb757610fb661246d565b5b602002602001018190525060007f000000000000000000000000000000000000000000000000000000000000000073ffffffffffffffffffffffffffffffffffffffff1663c23ee3c38b89896040518463ffffffff1660e01b81526004016110219392919061330c565b6040805180830381865afa15801561103d573d6000803e3d6000fd5b505050506040513d601f19601f820116820180604052508101906110619190612807565b5090507f000000000000000000000000000000000000000000000000000000000000000073ffffffffffffffffffffffffffffffffffffffff1663329a2be7828c8c8c8c8c896040518863ffffffff1660e01b81526004016110c896959493929190613461565b60206040518083038185885af11580156110e6573d6000803e3d6000fd5b50505050506040513d601f19601f8201168201806040525081019061110b91906134d0565b92505050979650505050505050565b60008173ffffffffffffffffffffffffffffffffffffffff1660001b9050919050565b60007f000000000000000000000000000000000000000000000000000000000000000073ffffffffffffffffffffffffffffffffffffffff16639a8a05926040518163ffffffff1660e01b8152600401602060405180830381865afa1580156111aa573d6000803e3d6000fd5b505050506040513d601f19601f820116820180604052508101906111ce9190612f54565b61ffff168361ffff161461127d577f000000000000000000000000000000000000000000000000000000000000000073ffffffffffffffffffffffffffffffffffffffff16631ff1e28684846040518363ffffffff1660e01b815260040161123792919061350c565b602060405180830381865afa158015611254573d6000803e3d6000fd5b505050506040513d601f19601f82011682018060405250810190611278919061354a565b611287565b6112868261156f565b5b905092915050565b6000808273ffffffffffffffffffffffffffffffffffffffff166040516024016040516020818303038152906040527f313ce567000000000000000000000000000000000000000000000000000000007bffffffffffffffffffffffffffffffffffffffffffffffffffffffff19166020820180517bffffffffffffffffffffffffffffffffffffffffffffffffffffffff838183161783525050505060405161133991906135b3565b600060405180830381855afa9150503d8060008114611374576040519150601f19603f3d011682016040523d82523d6000602084013e611379565b606091505b509150508080602001905181019061139191906135ca565b915050919050565b7f000000000000000000000000000000000000000000000000000000000000000073ffffffffffffffffffffffffffffffffffffffff163373ffffffffffffffffffffffffffffffffffffffff1614611427576040517f08c379a000000000000000000000000000000000000000000000000000000000815260040161141e90613669565b60405180910390fd5b6060808680602001905181019061143e91906137b7565b809250819350505060005b825181101561153757866000815181106114665761146561246d565b5b60200260200101516040015173ffffffffffffffffffffffffffffffffffffffff1663a9059cbb8483815181106114a05761149f61246d565b5b60200260200101518484815181106114bb576114ba61246d565b5b60200260200101516040518363ffffffff1660e01b81526004016114e0929190613251565b6020604051808303816000875af11580156114ff573d6000803e3d6000fd5b505050506040513d601f19601f82011682018060405250810190611523919061251a565b50808061152f90612729565b915050611449565b5050505050505050565b6115496118e7565b61156585858585604051806020016040528060008152506115c7565b9050949350505050565b60008060a08360001c901c146115bc57816040517f33b960d00000000000000000000000000000000000000000000000000000000081526004016115b3919061382f565b60405180910390fd5b8160001c9050919050565b6115cf6118e7565b8573ffffffffffffffffffffffffffffffffffffffff1663095ea7b37f0000000000000000000000000000000000000000000000000000000000000000876040518363ffffffff1660e01b815260040161162a929190613251565b6020604051808303816000875af1158015611649573d6000803e3d6000fd5b505050506040513d601f19601f8201168201806040525081019061166d919061251a565b5060007f000000000000000000000000000000000000000000000000000000000000000073ffffffffffffffffffffffffffffffffffffffff1663c5a5ebda7f000000000000000000000000000000000000000000000000000000000000000073ffffffffffffffffffffffffffffffffffffffff16631a90a2196040518163ffffffff1660e01b8152600401602060405180830381865afa158015611717573d6000803e3d6000fd5b505050506040513d601f19601f8201168201806040525081019061173b9190612847565b8989896117478a61111a565b60008a6040518863ffffffff1660e01b815260040161176b9695949392919061387b565b60206040518083038185885af1158015611789573d6000803e3d6000fd5b50505050506040513d601f19601f820116820180604052508101906117ae91906134d0565b905060405180606001604052807f000000000000000000000000000000000000000000000000000000000000000073ffffffffffffffffffffffffffffffffffffffff16639a8a05926040518163ffffffff1660e01b8152600401602060405180830381865afa158015611826573d6000803e3d6000fd5b505050506040513d601f19601f8201168201806040525081019061184a9190612f54565b61ffff16815260200161187c7f000000000000000000000000000000000000000000000000000000000000000061111a565b81526020018267ffffffffffffffff1681525091505095945050505050565b6040518060a0016040528060008019168152602001600061ffff168152602001600073ffffffffffffffffffffffffffffffffffffffff16815260200160008152602001600081525090565b6040518060600160405280600061ffff16815260200160008019168152602001600067ffffffffffffffff1681525090565b6000604051905090565b600080fd5b600080fd5b600080fd5b6000601f19601f8301169050919050565b7f4e487b7100000000000000000000000000000000000000000000000000000000600052604160045260246000fd5b61197b82611932565b810181811067ffffffffffffffff8211171561199a57611999611943565b5b80604052505050565b60006119ad611919565b90506119b98282611972565b919050565b600067ffffffffffffffff8211156119d9576119d8611943565b5b602082029050602081019050919050565b600080fd5b600080fd5b600080fd5b600067ffffffffffffffff821115611a1457611a13611943565b5b602082029050602081019050919050565b600073ffffffffffffffffffffffffffffffffffffffff82169050919050565b6000611a5082611a25565b9050919050565b611a6081611a45565b8114611a6b57600080fd5b50565b600081359050611a7d81611a57565b92915050565b6000611a96611a91846119f9565b6119a3565b90508083825260208201905060208402830185811115611ab957611ab86119ea565b5b835b81811015611ae25780611ace8882611a6e565b845260208401935050602081019050611abb565b5050509392505050565b600082601f830112611b0157611b0061192d565b5b8135611b11848260208601611a83565b91505092915050565b600067ffffffffffffffff821115611b3557611b34611943565b5b602082029050602081019050919050565b6000819050919050565b611b5981611b46565b8114611b6457600080fd5b50565b600081359050611b7681611b50565b92915050565b6000611b8f611b8a84611b1a565b6119a3565b90508083825260208201905060208402830185811115611bb257611bb16119ea565b5b835b81811015611bdb5780611bc78882611b67565b845260208401935050602081019050611bb4565b5050509392505050565b600082601f830112611bfa57611bf961192d565b5b8135611c0a848260208601611b7c565b91505092915050565b600061ffff82169050919050565b611c2a81611c13565b8114611c3557600080fd5b50565b600081359050611c4781611c21565b92915050565b600060c08284031215611c6357611c626119ef565b5b611c6d60c06119a3565b9050600082013567ffffffffffffffff811115611c8d57611c8c6119f4565b5b611c9984828501611aec565b600083015250602082013567ffffffffffffffff811115611cbd57611cbc6119f4565b5b611cc984828501611be5565b6020830152506040611cdd84828501611c38565b6040830152506060611cf184828501611a6e565b6060830152506080611d0584828501611a6e565b60808301525060a0611d1984828501611b67565b60a08301525092915050565b6000611d38611d33846119be565b6119a3565b90508083825260208201905060208402830185811115611d5b57611d5a6119ea565b5b835b81811015611da257803567ffffffffffffffff811115611d8057611d7f61192d565b5b808601611d8d8982611c4d565b85526020850194505050602081019050611d5d565b5050509392505050565b600082601f830112611dc157611dc061192d565b5b8135611dd1848260208601611d25565b91505092915050565b600060208284031215611df057611def611923565b5b600082013567ffffffffffffffff811115611e0e57611e0d611928565b5b611e1a84828501611dac565b91505092915050565b600060208284031215611e3957611e38611923565b5b6000611e4784828501611c38565b91505092915050565b611e5981611b46565b82525050565b6000602082019050611e746000830184611e50565b92915050565b6000611e8582611a45565b9050919050565b611e9581611e7a565b8114611ea057600080fd5b50565b600081359050611eb281611e8c565b92915050565b600080600060608486031215611ed157611ed0611923565b5b6000611edf86828701611ea3565b935050602084013567ffffffffffffffff811115611f0057611eff611928565b5b611f0c86828701611aec565b925050604084013567ffffffffffffffff811115611f2d57611f2c611928565b5b611f3986828701611be5565b9150509250925092565b600080fd5b600067ffffffffffffffff821115611f6357611f62611943565b5b611f6c82611932565b9050602081019050919050565b82818337600083830152505050565b6000611f9b611f9684611f48565b6119a3565b905082815260208101848484011115611fb757611fb6611f43565b5b611fc2848285611f79565b509392505050565b600082601f830112611fdf57611fde61192d565b5b8135611fef848260208601611f88565b91505092915050565b600067ffffffffffffffff82111561201357612012611943565b5b602082029050602081019050919050565b600061203761203284611ff8565b6119a3565b9050808382526020820190506020840283018581111561205a576120596119ea565b5b835b818110156120a157803567ffffffffffffffff81111561207f5761207e61192d565b5b80860161208c8982611fca565b8552602085019450505060208101905061205c565b5050509392505050565b600082601f8301126120c0576120bf61192d565b5b81356120d0848260208601612024565b91505092915050565b6000819050919050565b6120ec816120d9565b81146120f757600080fd5b50565b600081359050612109816120e3565b92915050565b600080600080600060a0868803121561212b5761212a611923565b5b600086013567ffffffffffffffff81111561214957612148611928565b5b61215588828901611fca565b955050602086013567ffffffffffffffff81111561217657612175611928565b5b612182888289016120ab565b9450506040612193888289016120fa565b93505060606121a488828901611c38565b92505060806121b5888289016120fa565b9150509295509295909350565b6000819050919050565b60006121e76121e26121dd84611a25565b6121c2565b611a25565b9050919050565b60006121f9826121cc565b9050919050565b600061220b826121ee565b9050919050565b61221b81612200565b82525050565b60006020820190506122366000830184612212565b92915050565b6000612247826121ee565b9050919050565b6122578161223c565b82525050565b6000602082019050612272600083018461224e565b92915050565b6000612283826121ee565b9050919050565b61229381612278565b82525050565b60006020820190506122ae600083018461228a565b92915050565b600080604083850312156122cb576122ca611923565b5b60006122d985828601611c38565b92505060206122ea858286016120fa565b9150509250929050565b600067ffffffffffffffff82111561230f5761230e611943565b5b602082029050602081019050919050565b600061232b82611a25565b9050919050565b61233b81612320565b811461234657600080fd5b50565b60008135905061235881612332565b92915050565b600061237161236c846122f4565b6119a3565b90508083825260208201905060208402830185811115612394576123936119ea565b5b835b818110156123bd57806123a98882612349565b845260208401935050602081019050612396565b5050509392505050565b600082601f8301126123dc576123db61192d565b5b81356123ec84826020860161235e565b91505092915050565b6000806040838503121561240c5761240b611923565b5b600083013567ffffffffffffffff81111561242a57612429611928565b5b612436858286016123c7565b925050602083013567ffffffffffffffff81111561245757612456611928565b5b61246385828601611be5565b9150509250929050565b7f4e487b7100000000000000000000000000000000000000000000000000000000600052603260045260246000fd5b6124a581611a45565b82525050565b60006060820190506124c0600083018661249c565b6124cd602083018561249c565b6124da6040830184611e50565b949350505050565b60008115159050919050565b6124f7816124e2565b811461250257600080fd5b50565b600081519050612514816124ee565b92915050565b6000602082840312156125305761252f611923565b5b600061253e84828501612505565b91505092915050565b600081519050919050565b600082825260208201905092915050565b6000819050602082019050919050565b61257c81611a45565b82525050565b600061258e8383612573565b60208301905092915050565b6000602082019050919050565b60006125b282612547565b6125bc8185612552565b93506125c783612563565b8060005b838110156125f85781516125df8882612582565b97506125ea8361259a565b9250506001810190506125cb565b5085935050505092915050565b600081519050919050565b600082825260208201905092915050565b6000819050602082019050919050565b61263a81611b46565b82525050565b600061264c8383612631565b60208301905092915050565b6000602082019050919050565b600061267082612605565b61267a8185612610565b935061268583612621565b8060005b838110156126b657815161269d8882612640565b97506126a883612658565b925050600181019050612689565b5085935050505092915050565b600060408201905081810360008301526126dd81856125a7565b905081810360208301526126f18184612665565b90509392505050565b7f4e487b7100000000000000000000000000000000000000000000000000000000600052601160045260246000fd5b600061273482611b46565b91507fffffffffffffffffffffffffffffffffffffffffffffffffffffffffffffffff8203612766576127656126fa565b5b600182019050919050565b61277a81611c13565b82525050565b6000819050919050565b60006127a56127a061279b84612780565b6121c2565b611b46565b9050919050565b6127b58161278a565b82525050565b60006060820190506127d06000830186612771565b6127dd60208301856127ac565b6127ea6040830184611e50565b949350505050565b60008151905061280181611b50565b92915050565b6000806040838503121561281e5761281d611923565b5b600061282c858286016127f2565b925050602061283d858286016127f2565b9150509250929050565b60006020828403121561285d5761285c611923565b5b600061286b848285016127f2565b91505092915050565b600061287f82611b46565b915061288a83611b46565b92508282019050808211156128a2576128a16126fa565b5b92915050565b600081519050919050565b600082825260208201905092915050565b60005b838110156128e25780820151818401526020810190506128c7565b60008484015250505050565b60006128f9826128a8565b61290381856128b3565b93506129138185602086016128c4565b61291c81611932565b840191505092915050565b6000602082019050818103600083015261294181846128ee565b905092915050565b600060ff82169050919050565b61295f81612949565b811461296a57600080fd5b50565b60008151905061297c81612956565b92915050565b600063ffffffff82169050919050565b61299b81612982565b81146129a657600080fd5b50565b6000815190506129b881612992565b92915050565b6000815190506129cd81611c21565b92915050565b6000815190506129e2816120e3565b92915050565b600067ffffffffffffffff82169050919050565b612a05816129e8565b8114612a1057600080fd5b50565b600081519050612a22816129fc565b92915050565b6000612a3b612a3684611f48565b6119a3565b905082815260208101848484011115612a5757612a56611f43565b5b612a628482856128c4565b509392505050565b600082601f830112612a7f57612a7e61192d565b5b8151612a8f848260208601612a28565b91505092915050565b600067ffffffffffffffff821115612ab357612ab2611943565b5b602082029050602081019050919050565b600060808284031215612ada57612ad96119ef565b5b612ae460806119a3565b90506000612af4848285016129d3565b6000830152506020612b08848285016129d3565b6020830152506040612b1c8482850161296d565b6040830152506060612b308482850161296d565b60608301525092915050565b6000612b4f612b4a84612a98565b6119a3565b90508083825260208201905060808402830185811115612b7257612b716119ea565b5b835b81811015612b9b5780612b878882612ac4565b845260208401935050608081019050612b74565b5050509392505050565b600082601f830112612bba57612bb961192d565b5b8151612bca848260208601612b3c565b91505092915050565b60006101608284031215612bea57612be96119ef565b5b612bf56101606119a3565b90506000612c058482850161296d565b6000830152506020612c19848285016129a9565b6020830152506040612c2d848285016129a9565b6040830152506060612c41848285016129be565b6060830152506080612c55848285016129d3565b60808301525060a0612c6984828501612a13565b60a08301525060c0612c7d8482850161296d565b60c08301525060e082015167ffffffffffffffff811115612ca157612ca06119f4565b5b612cad84828501612a6a565b60e083015250610100612cc2848285016129a9565b6101008301525061012082015167ffffffffffffffff811115612ce857612ce76119f4565b5b612cf484828501612ba5565b61012083015250610140612d0a848285016129d3565b6101408301525092915050565b600060208284031215612d2d57612d2c611923565b5b600082015167ffffffffffffffff811115612d4b57612d4a611928565b5b612d5784828501612bd3565b91505092915050565b6000602082019050612d756000830184612771565b92915050565b600060208284031215612d9157612d90611923565b5b6000612d9f848285016129d3565b91505092915050565b600082825260208201905092915050565b7f4e6f74206120546f6b656e204272696467652056414100000000000000000000600082015250565b6000612def601683612da8565b9150612dfa82612db9565b602082019050919050565b60006020820190508181036000830152612e1e81612de2565b9050919050565b60006101008284031215612e3c57612e3b6119ef565b5b612e476101006119a3565b90506000612e578482850161296d565b6000830152506020612e6b848285016127f2565b6020830152506040612e7f848285016129d3565b6040830152506060612e93848285016129be565b6060830152506080612ea7848285016129d3565b60808301525060a0612ebb848285016129be565b60a08301525060c0612ecf848285016129d3565b60c08301525060e082015167ffffffffffffffff811115612ef357612ef26119f4565b5b612eff84828501612a6a565b60e08301525092915050565b600060208284031215612f2157612f20611923565b5b600082015167ffffffffffffffff811115612f3f57612f3e611928565b5b612f4b84828501612e25565b91505092915050565b600060208284031215612f6a57612f69611923565b5b6000612f78848285016129be565b91505092915050565b7f546f6b656e20776173206e6f742073656e7420746f207468697320616464726560008201527f7373000000000000000000000000000000000000000000000000000000000000602082015250565b6000612fdd602283612da8565b9150612fe882612f81565b604082019050919050565b6000602082019050818103600083015261300c81612fd0565b9050919050565b60006020828403121561302957613028611923565b5b600082015167ffffffffffffffff81111561304757613046611928565b5b61305384828501612a6a565b91505092915050565b600061306782612949565b915061307283612949565b9250828203905060ff81111561308b5761308a6126fa565b5b92915050565b60008160011c9050919050565b6000808291508390505b60018511156130e8578086048111156130c4576130c36126fa565b5b60018516156130d35780820291505b80810290506130e185613091565b94506130a8565b94509492505050565b60008261310157600190506131bd565b8161310f57600090506131bd565b8160018114613125576002811461312f5761315e565b60019150506131bd565b60ff841115613141576131406126fa565b5b8360020a915084821115613158576131576126fa565b5b506131bd565b5060208310610133831016604e8410600b84101617156131935782820a90508381111561318e5761318d6126fa565b5b6131bd565b6131a0848484600161309e565b925090508184048111156131b7576131b66126fa565b5b81810290505b9392505050565b60006131cf82611b46565b91506131da83612949565b92506132077fffffffffffffffffffffffffffffffffffffffffffffffffffffffffffffffff84846130f1565b905092915050565b600061321a82611b46565b915061322583611b46565b925082820261323381611b46565b9150828204841483151761324a576132496126fa565b5b5092915050565b6000604082019050613266600083018561249c565b6132736020830184611e50565b9392505050565b7f4e6f7420616c6c6f77656420746f20736574207265676973746572656420736560008201527f6e64657200000000000000000000000000000000000000000000000000000000602082015250565b60006132d6602483612da8565b91506132e18261327a565b604082019050919050565b60006020820190508181036000830152613305816132c9565b9050919050565b60006060820190506133216000830186612771565b61332e6020830185611e50565b61333b6040830184611e50565b949350505050565b600081519050919050565b600082825260208201905092915050565b6000819050602082019050919050565b61337881611c13565b82525050565b613387816120d9565b82525050565b613396816129e8565b82525050565b6060820160008201516133b2600085018261336f565b5060208201516133c5602085018261337e565b5060408201516133d8604085018261338d565b50505050565b60006133ea838361339c565b60608301905092915050565b6000602082019050919050565b600061340e82613343565b613418818561334e565b93506134238361335f565b8060005b8381101561345457815161343b88826133de565b9750613446836133f6565b925050600181019050613427565b5085935050505092915050565b600060c0820190506134766000830189612771565b613483602083018861249c565b818103604083015261349581876128ee565b90506134a46060830186611e50565b6134b16080830185611e50565b81810360a08301526134c38184613403565b9050979650505050505050565b6000602082840312156134e6576134e5611923565b5b60006134f484828501612a13565b91505092915050565b613506816120d9565b82525050565b60006040820190506135216000830185612771565b61352e60208301846134fd565b9392505050565b60008151905061354481611a57565b92915050565b6000602082840312156135605761355f611923565b5b600061356e84828501613535565b91505092915050565b600081905092915050565b600061358d826128a8565b6135978185613577565b93506135a78185602086016128c4565b80840191505092915050565b60006135bf8284613582565b915081905092915050565b6000602082840312156135e0576135df611923565b5b60006135ee8482850161296d565b91505092915050565b7f4d73672e73656e646572206973206e6f7420576f726d686f6c652052656c617960008201527f6572000000000000000000000000000000000000000000000000000000000000602082015250565b6000613653602283612da8565b915061365e826135f7565b604082019050919050565b6000602082019050818103600083015261368281613646565b9050919050565b600061369c613697846119f9565b6119a3565b905080838252602082019050602084028301858111156136bf576136be6119ea565b5b835b818110156136e857806136d48882613535565b8452602084019350506020810190506136c1565b5050509392505050565b600082601f8301126137075761370661192d565b5b8151613717848260208601613689565b91505092915050565b600061373361372e84611b1a565b6119a3565b90508083825260208201905060208402830185811115613756576137556119ea565b5b835b8181101561377f578061376b88826127f2565b845260208401935050602081019050613758565b5050509392505050565b600082601f83011261379e5761379d61192d565b5b81516137ae848260208601613720565b91505092915050565b600080604083850312156137ce576137cd611923565b5b600083015167ffffffffffffffff8111156137ec576137eb611928565b5b6137f8858286016136f2565b925050602083015167ffffffffffffffff81111561381957613818611928565b5b61382585828601613789565b9150509250929050565b600060208201905061384460008301846134fd565b92915050565b600061386561386061385b84612780565b6121c2565b612982565b9050919050565b6138758161384a565b82525050565b600060c082019050613890600083018961249c565b61389d6020830188611e50565b6138aa6040830187612771565b6138b760608301866134fd565b6138c4608083018561386c565b81810360a08301526138d681846128ee565b905097965050505050505056fea26469706673582212208d48912302d3186af70ac9ee500df92d0878ce101061da4e3419990dc0a46b7764736f6c63430008130033",
  "linkReferences": {},
  "deployedLinkReferences": {}
}